:10000600D2BBBCB6BFDAC1EEA3BAD0A1D3A50D0A46
:1000160000B6FEBCB6BFDAC1EEA3BA31A1A2D6D0F5
:10002600B9FA0D0A000932A1A2B9FEB6FBB1F50D67
:100036000A000933A1A2C8ABC7F2D3A5B5E7D7D347
:100046000D0A000934A1A2BBB6D3ADC4E30D0A0064
:10005600202035A1A2BFAAB5C60D0A000936A1A265
:10006600B9D8B5C60D0A000937A1A2CDEDB0B20DBB
:100076000A00CAD5B5BD0D0A00A1B0B0E2CAD6A124
:10008600B1C3FCC1EECAB6B1F0B3C9B9A60D0A0038
:10009600A1B0C2DDCBBFB5B6A1B1C3FCC1EECAB635
:1000A600B1F0B3C9B9A60D0A00A1B0D3CEB1EABF6B
:1000B600A8B3DFA1B1C3FCC1EECAB6B1F0B3C9B9EA
:1000C600A60D0A00A1B0C7AFD7D3A1B1C3FCC1EE3C
:1000D600CAB6B1F0B3C9B9A60D0A00A1B0B4B8D773
:1000E600D3A1B1C3FCC1EECAB6B1F0B3C9B9A60D6E
:1000F6000A00A1B0BEEDB3DFA1B1C3FCC1EECAB622
:10010600B1F0B3C9B9A60D0A00A1B0CDF2D3C3B1FF
:10011600EDA1B1C3FCC1EECAB6B1F0B3C9B9A60D23
:100126000A00A1B0EFB1B5B6A1B1C3FCC1EECAB623
:10013600B1F0B3C9B9A60D0A00A1B0C8FBB3DFA1DF
:10014600B1C3FCC1EECAB6B1F0B3C9B9A60D0A0077
:10015600A1B0BBA4C4BFBEB5A1B1C3FCC1EECAB6B3
:10016600B1F0B3C9B9A60D0A00C7EBD6D8D0C2CA3A
:10017600B6B1F0B7A2BFDAC1EE0D0A00C7EBCBB538
:0D018600B3F6D2BBBCB6BFDAC1EE0D0A0065
:060AAF00011C00011B0008
:10069800E4F509120A77120A5F1209421209EFE417
:1006A800781CF67BFF7A007906120A167BFF7A001F
:1006B8007917120A167BFF7A00792B120A167BFF2C
:1006C8007A007938120A167BFF7A007949120A16DD
:1006D8007BFF7A007956120A167BFF7A007962123C
:1006E8000A167BFF7A00796D120A16781CE61460E8
:1006F800FA24F1601824DF60F224317020781C7627
:10070800011208A9EF70E4781C763180DE120AD055
:10071800781EEFF61203FDE4781CF680CEE4781C10
:03072800F680C890
:100A7700B2C2120A97B2C2120A97B2C2120A97B248
:020A8700C22289
:100A5F007580FF7590FF75A0FF75B0FF75C0FFC261
:080A6F00C3D289D2A8D2AF2244
:0A0AA40000007F057E49DEFEDFFC46
:010AAE002225
:080A3B008F148E138D128C1133
:100A4300E4F515F516F517F518781174FF1203116F
:0B0A5300EC4D4E4F6005120AA480EE2F
:010A5E002275
:0C0A97007F117ED07D1BDDFEDEFCDFFA4F
:010AA3002230
:030003000209836C
:10098300C0E0C0F0C083C082C0D075D000C000C03A
:1009930001C002C003C004C005C006C00712055D44
:1009A300D007D006D005D004D003D002D001D000A8
:0B09B300D0D0D082D083D0F0D0E03252
:1003FD008F0AEF700E751B01C2C27BFF7A007978F0
:10040D000204AFE51B640160030204A9F51BD2C20F
:10041D00E50A14B40A00507C90043375F003A4C5AA
:10042D008325F0C58373020451020459020461024D
:10043D000469020471020479020481020489020430
:10044D00910204997BFF7A00797F80567BFF7A00B9
:10045D007996804E7BFF7A0079AF80467BFF7A00DC
:10046D0079CA803E7BFF7A0079E180367BFF7A0086
:10047D0079F8802E7BFF7A01790F80267BFF7A0138
:10048D007928801E7BFF7A01793F80167BFF7A01E8
:10049D007956800E7BFF7A01796F80067BFF7A019A
:0604AD007982120A1622FA
:100193006A696E67206C696E6720746F6E6720787A
:1001A30075650000000000000000000000006261AF
:1001B3006E2073686F7500000000000000000000EF
:1001C3000000000000000000000000006C756F20BC
:1001D30073692064616F00000000000000000000EC
:1001E30000000000000000000000796F75206269C4
:1001F300616F206B612063686900000000000000EC
:1002030000000000000000007169616E207A69003F
:1002130000000000000000000000000000000000DB
:1002230000000000000063687569207A690000001F
:1002330000000000000000000000000000000000BB
:10024300000000006A75616E2063686900000000A9
:10025300000000000000000000000000000000009B
:10026300000077616E20796F6E67206269616F00AD
:10027300000000000000000000000000000000007B
:1002830063756F2064616F000000000000000000D0
:100293000000000000000000000000000000736187
:1002A300692063686900000000000000000000008E
:1002B3000000000000000000000000006875206DD1
:1002C30075206A696E6700000000000000000000EE
:1002D300000000000000000000000001020304050C
:0502E300060708090AEE
:10094200D2B57F057E007D007C00120A3BC2B57FD6
:10095200057E007D007C00120A3BD2B57F057E0039
:100962007D007C00120A3BC2A17F057E007D007CD7
:1009720000120A3BD2A17F057E007D007C00020AA4
:010982003B39
:1005FC007F06120AC57D357F17120ABA7F0A7E0064
:10060C007D007C00120A3B7F06120AC57D037F89A0
:10061C00120ABA7F057E007D007C00120A3B7D43E6
:10062C007FCF120ABA7F057E007D007C00120A3B48
:10063C007D027FCB120ABA7D0A7F11120ABAE4FD41
:10064C007F1E120ABA7D3F7F19120ABA7D487F1BA2
:10065C00120ABA7D1F7F1D120ABA7F0A7E007D0026
:10066C007C00120A3B7D047FCD120ABA7F057E0006
:10067C007D007C00120A3BE4FD7FB9120ABA7D4F63
:0C068C007FCF120ABA7DFF7F6F020ABA0E
:10084A001205FCE4FD7FBD120ABA7D487F17120A21
:10085A00BA7F0A7E007D007C00120A3B7D807F3CC5
:10086A00120ABA7D077F3E120ABA7DFF7F38120A42
:10087A00BA7D077F3A120ABAE4FD7F40120ABA7DAE
:10088A00087F42120ABAE4FD7F44120ABA7D087F41
:0F089A0046120ABA7F017E007D007C00020A3BF5
:10055D00E4F508C2A87F2B120AC5781DA607E4FD95
:10056D007F29120ABAE4FD7F02120ABA781DE6301D
:10057D00E4377FB2120AC5EF6421702D7FBF120AD6
:10058D00C5EF643570237FBA120AC58F087E00D37C
:10059D00EF9400748094804010D3EF940474809491
:1005AD00805006781C76108004781C7611E4FD7F4F
:1005BD002B120ABAE4FD7F1C120ABAE4FD7F291240
:1005CD000ABAE4FD7F02120ABAE4FD7F2B120ABAC1
:1005DD00E4FD7FBA120ABAE4FD7FBC120ABA7D01AE
:0E05ED007F08120ABAE4FD7F08120ABAD2A8EB
:0105FB0022DD
:1008A900E4F50AF50BF50AC3E50A9405748094800A
:1008B9005040120AD57F327E007D007C00120A3B2F
:1008C9001204B3EF700280117F0A7E007D007C0064
:1008D900120A3B12072BEF70101209427F327E0079
:1008E9007D007C00120A3B8005750B018004050A16
:0408F90080B5AF0B0C
:0108FD0022D8
:1009BE00E4F510F50FC3E50F940A74809480501E71
:1009CE007FB2120AC5EF64217005751001800F7F8A
:1009DE000A7E007D007C00120A3B050F80D7AF1007
:0109EE0022E6
:030AD50002084ACA
:10072B00C2A87D557F35120ABA7D097F1C120ABA01
:10073B007D207FBD120ABA7D017F08120ABA7F01A4
:10074B007E007D007C00120A3BE4FD7F08120ABA92
:10075B007F017E007D007C00120A3B1209BEEF7008
:10076B0002FF227D0B7F1C120ABA7DFF7FB2120A99
:10077B00BA7F017E007D007C00120A3B7D067F372D
:10078B00120ABA7F017E007D007C00120A3B7D06B7
:10079B007F37120ABA7F057E007D007C00120A3B70
:1007AB007D107F29120ABAE4FD7FBD120ABAD2A8C6
:0307BB007F012299
:1004B300750D01E4F50CC3E50C940B748094804036
:1004C3000302055A1209BEEF7005F50D02055AE540
:1004D3000C9002DD93FD7FC1120ABAE4FD7FC312C3
:1004E3000ABA7D047F08120ABA7F017E007D007C70
:1004F30000120A3BE4FD7F08120ABA7F017E007DE9
:10050300007C00120A3BE4F50EC3E50E941E7480D2
:100513009480502975F01EE50CA42493F582E5F030
:100523003401F583E582250EF582E43583F583E412
:1005330093FD60097F05120ABA050E80CCAD0E7FCC
:10054300B9120ABA7DFF7FB2120ABA7D047F37124D
:090553000ABA050C0204B9AF0D4F
:01055C00227C
:050AD0007FC5020AC50C
:0B0ABA00908100EFF0908000EDF02232
:0B0AC500908100EFF0908000E0FF2225
:040AB500021925807D
:1009EF00759850758920AE19AF1AAB07AA06E4F9AE
:1009FF00F8FF7EE1FDFC1208FE1203018F8B8F8D35
:070A0F00D28ED2ACD2AF225F
:0E0A8900C2ACC2998F993099FDC299D2AC22AD
:100A16008B0B8A0C890DAB0BAA0CA90D1202E86090
:100A260013050DE50D7002050C14F91202E8FF120C
:050A36000A8980E222A4
:030000000207BE36
:0C07BE00787FE4F6D8FD75811E02080566
:1002E800BB010689828A83E0225002E722BBFE0214
:0902F800E32289828A83E4932247
:1008FE00C2D5E830E70FB2D5E4C39BFBE49AFAE425
:10090E0099F9E498F8EC30E717B2D51209341203CE
:10091E006BE4C39BFBE49AFAE499F9E498F880033C
:10092E0012036B30D50DE4C39FFFE49EFEE49DFDE4
:04093E00E49CFC2217
:0E030100C3E49FFFE49EFEE49DFDE49CFC220D
:10030F007401FF3395E0FEFDFC080808E6CF2FF6D9
:10031F0018E6CE3EF618E6CD3DF618E6CC3CF622B2
:1007CA00020698E493A3F8E493A34003F68001F2A7
:1007DA0008DFF48029E493A3F85407240CC8C33330
:1007EA00C4540F4420C8834004F456800146F6DFFF
:1007FA00E4800B0102040810204080900AAFE47ED6
:10080A00019360BCA3FF543F30E509541FFEE493F3
:10081A00A360010ECF54C025E060A840B8E493A3BA
:10082A00FAE493A3F8E493A3C8C582C8CAC583CAE5
:10083A00F0A3C8C582C8CAC583CADFE9DEE780BE9D
:010AB900003C
:10032F0075F008758200EF2FFFEE33FECD33CDCC85
:10033F0033CCC58233C5829BED9AEC99E582984008
:10034F000CF582EE9BFEED9AFDEC99FC0FD5F0D6E5
:10035F00E4CEFBE4CDFAE4CCF9A88222B800C1B90F
:10036F000059BA002DEC8BF084CFCECDFCE5F0CB4D
:10037F00F97818EF2FFFEE33FEED33FDEC33FCEB86
:10038F0033FB10D703994004EB99FB0FD8E5E4F941
:10039F00FA227818EF2FFFEE33FEED33FDEC33FC2E
:1003AF00C933C910D7059BE99A4007EC9BFCE99A22
:1003BF00F90FD8E0E4C9FAE4CCFB2275F010EF2F67
:1003CF00FFEE33FEED33FDCC33CCC833C810D70767
:1003DF009BEC9AE899400AED9BFDEC9AFCE899F8A2
:0E03EF000FD5F0DAE4CDFBE4CCFAE4C8F92235
:00000001FF
